S0180000566962726F47756172645F46696E616C2E73726563CE
S11300000C9434000C9451000C9451000C94510045
S11300100C9451000C9451000C9451000C94510018
S11300200C9451000C9451000C9451000C94510008
S11300300C9451000C9406070C9410020C9451007B
S11300400C9451000C9451000C9451000C945100E8
S11300500C9451000C9451000C9451000C945100D8
S11300600C9451000C94510011241FBECFEFD8E022
S1130070DEBFCDBF11E0A0E0B1E0E8E1F1E202C0F3
S113008005900D92A832B107D9F724E0A8E2B1E0B7
S113009001C01D92A037B207E1F70E9470080C94CA
S11300A08A100C940000CF93DF93EC01798368836A
S11300B068EE73E08CE291E00E94E4038CE291E04C
S11300C00E94F903688120E04BE68CE291E00E94F3
S11300D0CB058CE291E00E94E103DF91CF9108957A
S11300E0CF92DF92EF92FF920F931F93CF93DF9300
S11300F07C018CE291E00E94F903F701608126E023
S11301004BE38CE291E00E940B068CE291E00E94AA
S11301100B04082F10E0102F00278CE291E00E94BE
S11301200B04082B8CE291E00E940B04C82FD0E052
S1130130DC2FCC278CE291E00E940B046E01C82ACC
S11301408CE291E00E940B04C82FD0E0DC2FCC2776
S11301508CE291E00E940B04C82B8CE291E00E9497
S1130160E103B801110F880B990B0E94910920E05B
S113017030E040E858E30E94750AF7016283738314
S113018084839583B601DD0C880B990B0E94910939
S113019020E030E040E858E30E94750AF7016683E6
S11301A0778380879187BE01DD0F880B990B0E94AE
S11301B0910920E030E040E858E30E94750AF70115
S11301C06287738784879587DF91CF911F910F9101
S11301D0FF90EF90DF90CF9008956F927F928F926F
S11301E09F92AF92BF92CF92DF92EF92FF920F93C2
S11301F01F93CF93DF93EC010E9470006A817B818F
S11302008C819D8120E030E048EC52E40E94750A24
S11302100F2EF3E48F2EF02D8F920F2EFFE79F2EDB
S1130220F02D9F921F921F92A12CB12C6501E12CFD
S1130230F12C08E413E420E030E048E453EC0E949D
S11302406C010E946009662E6E817F818885998584
S113025020E030E048EC52E40E94750A8F929F92AD
S11302601F921F9220E030E048E453EC0E946C019E
S11302700E946009762E6A857B858C859D8520E0A9
S113028030E048EC52E40E94750A8F929F921F92CC
S11302901F9220E030E048E453EC0E946C010E947D
S11302A06009862F2DB73EB7245F3F4F0FB6F894F1
S11302B03EBF0FBE2DBF662D772DDF91CF911F91CD
S11302C00F91FF90EF90DF90CF90BF90AF909F90F1
S11302D08F907F906F9008954F925F926F927F926C
S11302E0AF92BF92CF92DF92EF92FF920F931F9340
S11302F0CF93DF93CDB7DEB728970FB6F894DEBF60
S11303000FBECDBF29013A01E982FA820B831C8317
S11303100E9475086D837E838F839887A301920161
S1130320C801B7010E9475089B01AC016D817E81F3
S11303308F8198850E94E7082B013C01A601950155
S1130340698D7A8D8B8D9C8D0E9475089B01AC0103
S1130350C301B2010E94750A9B01AC01C601B5013B
S11303600E94760828960FB6F894DEBF0FBECDBF64
S1130370DF91CF911F910F91FF90EF90DF90CF907D
S1130380BF90AF907F906F905F904F900895EF92E1
S1130390FF920F931F93CF93DF93CDB7DEB72F97C1
S11303A00FB6F894DEBF0FBECDBF02E010E02FE021
S11303B030E0AE014F5F5F4F7A010E944002F701C7
S11303C001900020E9F73197CF018E199F0901961A
S11303D00E94700B8C01009731F0B7010E94690DE7
S11303E0802F912F02C080E090E02F960FB6F894F2
S11303F0DEBF0FBECDBFDF91CF911F910F91FF9054
S1130400EF90089514BC15BC89EF87BDEEE6F0E0CB
S113041080818260808385B5836085BD78940895EA
S11304201F920F920FB60F9211248F939F93AF9345
S1130430BF938091280190912901A0912A01B09144
S11304402B010196A11DB11D8093280190932901D0
S1130450A0932A01B0932B01BF91AF919F918F91EB
S11304600F900FBE0F901F901895F894609128017B
S11304707091290180912A0190912B01789408951B
S11304802F923F924F925F926F927F928F929F92A0
S1130490AF92BF92CF92DF92EF92FF920F931F938E
S11304A0CF93DF93CDB7DEB72A970FB6F894DEBFAC
S11304B00FBECDBF6B017C01842E952E322E232ED0
S11304C00115110541F520E030E0A9010E94E20880
S11304D088232CF460E070E080E09FEB04C060E0CF
S11304E070E080E09FE3A70196010E9476080E94D5
S11304F059097F936F9387E091E09F938F932F9295
S11305003F929F928F920E94700D0FB6F894DEBFB7
S11305100FBECDBFB9C011230CF063C0A12CB12C08
S113052088279927801B910BA816B906E4F4C70104
S1130530B6010E9459099B01772324F4222733270B
S1130540261B370B2A30310574F020E030E040E2FE
S113055051E4C701B6010E94E7086B017C019FEFDB
S1130560A91AB90ADDCFBF92AF928AE091E09F93B6
S11305708F93CE0101969F938F930E94A00D0F90AD
S11305800F900F900F900F900F9020E030E0A90192
S1130590C701B6010E94E20888232CF420E030E071
S11305A040E05FEB04C020E030E040E05FE3C701DF
S11305B0B6010E9476080E9459091F921F927F93E8
S11305C06F93CE0101969F938F932F923F929F92A8
S11305D08F920E94700D0FB6F894DEBF0FBECDBF90
S11305E053C00E945909B62EA72E40E050E0C7011F
S11305F0B6010E94410A2B013C0120E030E0A90130
S11306000E94E208882324F477FA709477F87094AF
S113061078011E141F0474F420E030E040E251E439
S1130620C301B2010E94750A2B013C0191E0E91A51
S1130630F108EFCF20E030E040E05FE3C301B20116
S11306400E9476080E945909F62EE72E1F930F93F5
S113065084E191E09F938F938E010F5F1F4F1F934F
S11306600F930E94A00DEF92FF92AF92BF921F933F
S11306700F932F923F929F928F920E94700D0FB60C
S1130680F894DEBF0FBECDBF882D992D2A960FB6E4
S1130690F894DEBF0FBECDBFDF91CF911F910F91B4
S11306A0FF90EF90DF90CF90BF90AF909F908F908E
S11306B07F906F905F904F903F902F9008950E948D
S11306C08F0920E030E040E851E40E94750A9B0164
S11306D0AC0160E074E284E79BE40E94E70820E058
S11306E030E040E85FE30E9475080E94E20A0E943D
S11306F060097093C5006093C40088E18093C100D1
S113070086E08093C20008959091C00095FFFCCFCD
S11307108093C6000895CF93DF93EC0188818823EA
S113072021F021960E948403F9CFDF91CF9108959F
S11307300E948B038AE00E94840308958091C00084
S1130740881F8827881F08958091C0008823E4F7B4
S11307508091C60008950F931F93CF93DF9381E098
S113076090E00E94700BEC01892B09F110E001C0AC
S1130770182F0E94A403082F612F70E06E5F7F4F33
S1130780CE010E94910CEC01892BA1F081E0810F34
S1130790FE01E10FF11D00830A3011F00111E8CFD1
S11307A0FE01E80FF11D10828C2F9D2F05C080E003
S11307B090E002C080E090E0DF91CF911F910F9113
S11307C008951092BC00089570934F0160934E01F8
S11307D00895662339F088B1806188B988B1806250
S11307E088B9089588B18F7E88B988B18F7D88B91A
S11307F0089561E00E94E903E9EBF0E080818E7FD7
S1130800808380818D7F808388E48093B80084E432
S11308108093BC000895AC01809152012091500155
S1130820281B20935101811103C010925101089596
S11308309FEF980F90935201FA01E20FF11D82810C
S11308400895ECEBF0E0108284E480830895CF9265
S1130850DF92EF92FF921F93CF93DF93EC010E94FC
S113086035026B017C0184EA8093BC008091BC005A
S11308708823F4F080914E0190914F01892BB1F3BC
S11308800E943502AB01BC014C195D096E097F0958
S113089080914E0190914F01A0E0B0E048175907B4
S11308A06A077B0718F3CE010E94210481E024C06B
S11308B08091B900887F883039F08091B900887FB1
S11308C0803121F481E003C081E001C080E0811126
S11308D012C08091B900887F883349F48091B900AF
S11308E0182F187FCE010E942104812F05C080910A
S11308F0B900887F01C080E0DF91CF911F91FF9004
S1130900EF90DF90CF900895CF92DF92EF92FF9215
S11309100F931F93CF938C01C62F0E9435026B0156
S11309207C01CC2321F084EC8093BC0003C084E8D8
S11309308093BC008091BC008823F4F080914E0128
S113094090914F01892BB1F30E943502AB01BC0198
S11309504C195D096E097F0980914E0190914F01F8
S1130960A0E0B0E0481759076A077B0718F3C801ED
S11309700E94210481E011C08091B900887F8833EE
S113098049F48091B900C82FC87FC8010E9421048E
S11309908C2F03C08091B900887FCF911F910F9154
S11309A0FF90EF90DF90CF900895CF92DF92EF9277
S11309B0FF92CF93DF93EC010E9435026B017C011F
S11309C084E98093BC009091BC00892F807194FFCE
S11309D01DC080914E0190914F01892BA1F30E947B
S11309E03502AB01BC014C195D096E097F09809188
S11309F04E0190914F01A0E0B0E0481759076A07F3
S1130A007B0708F3CE010E94210481E0DF91CF919E
S1130A10FF90EF90DF90CF900895CF92DF92EF9206
S1130A20FF920F931F93CF938C016093BB000E949E
S1130A3035026B017C0184E88093BC008091BC008A
S1130A408823F4F080914E0190914F01892BB1F3EA
S1130A500E943502AB01BC014C195D096E097F0986
S1130A6080914E0190914F01A0E0B0E048175907E2
S1130A706A077B0718F3C8010E94210481E02FC094
S1130A808091B900887F883139F08091B900887FDE
S1130A90803421F491E003C091E001C090E0911111
S1130AA01DC0E9EBF0E08081C82FC87F8081887F7A
S1130AB0803239F08091B900887F883419F491E04C
S1130AC001C091E0992329F0C8010E94D5048C2F1C
S1130AD006C0C8010E9421048C2F01C080E0CF9180
S1130AE01F910F91FF90EF90DF90CF900895CF92D8
S1130AF0DF92EF92FF920F931F93CF938C01609339
S1130B00BB000E9435026B017C0184E88093BC0029
S1130B108091BC008823F4F080914E0190914F01A4
S1130B20892BB1F30E943502AB01BC014C195D095C
S1130B306E097F0980914E0190914F01A0E0B0E0D1
S1130B40481759076A077B0718F3C8010E94210454
S1130B5081E019C08091B900887F883299F0E9EB6F
S1130B60F0E08081C82FC87F8081887F803329F49A
S1130B70C8010E94D5048C2F06C0C8010E9421041C
S1130B808C2F01C080E0CF911F910F91FF90EF90C7
S1130B90DF90CF900895FF920F931F93CF93DF932D
S1130BA0EC01162F042FF22E18820E94270488834A
S1130BB081112BC0612F660FCE010E940D05888321
S1130BC0882321F0813009F582E01FC0602FCE0117
S1130BD00E9477058883882321F08130B1F483E073
S1130BE014C06F2DCE010E9477058883882321F0DD
S1130BF0813059F483E009C0CE010E94D504888372
S1130C00882319F0813009F487E0DF91CF911F9197
S1130C100F91FF900895FF920F931F93CF93DF934B
S1130C20EC01062FF42E122F109252011092510152
S1130C30213208F010E2111101C01F5F8FEF810F04
S1130C4089831882CE010E9427048883811162C09F
S1130C50000F602FCE010E940D058883882329F0A0
S1130C60813009F057C082E055C06F2DCE010E943B
S1130C7077058883882329F0813009F04BC083E00D
S1130C8049C0CE010E9427048883882329F081303B
S1130C9009F040C084E03EC061E0600FCE010E94D4
S1130CA00D058883882321F08130A1F585E032C0C9
S1130CB000E0011710F5898108130AC060E0CE0135
S1130CC00E9484048883813011F1883551F022C058
S1130CD061E0CE010E94840488838130D1F08035A4
S1130CE0C9F48091BB00FE01E00FF11D82830F5F08
S1130CF00093520100935001DCCFCE010E94D50431
S1130D008883882339F0813029F487E003C086E0A2
S1130D1001C086E0DF91CF911F910F91FF9008955C
S1130D200F931F938C011816190614F001E010E0BC
S1130D30093E83E0180714F008EE13E010928000D7
S1130D40109281000B30110544F4E1E8F0E0808159
S1130D508460808320E031E01EC00333110544F435
S1130D60E1E8F0E080818360808320E430E013C018
S1130D70053F81E0180744F4E1E8F0E080818260F7
S1130D80808328E030E007C0E1E8F0E08081816002
S1130D90808321E030E0032E000C440B550B60E00F
S1130DA074E284EF90E00E942F0BCA01B90198010C
S1130DB0110F440B550B0E942F0B319521953109CE
S1130DC0309366012093650130938500209384005D
S1130DD0EFE6F0E08081816080831F910F91089598
S1130DE00E94020260E072EC81E090E00E945F03E6
S1130DF084B1816084B968E670E087E591E00E947F
S1130E00530088EC90E00E94900608951F920F9280
S1130E100FB60F9211242F938F939F93EF93FF9309
S1130E2080910601882369F1E0916701F0916801DE
S1130E3080916B04E759FE4F8083E0916701F09144
S1130E40680180916A04E759FD4F8083E09167014E
S1130E50F091680180916904E759FC4F8083809187
S1130E6067019091680101969093680180936701EE
S1130E7080916701909168018115914011F410925D
S1130E80060180916501909166019093850080939D
S1130E908400FF91EF919F918F912F910F900FBE3E
S1130EA00F901F901895AF92BF92CF92DF92EF925E
S1130EB0FF920F931F93CF93DF938FE191E00E94F2
S1130EC09803C0E0D0E0CF3FD10509F0A4F5FE01BE
S1130ED0E759FE4F608170E080E090E00E948F0946
S1130EE023E42F9328E42F931F921F920F2EA12CFB
S1130EF0B12CF8E4CF2EF3ECDF2EF02DE12CF12C05
S1130F000FE713E420E030E0A9010E946C0120E027
S1130F1030E048EC52E40E94E7080E94C7018C01CB
S1130F200E949803C8010E94080C21960F900F900C
S1130F300F900F90C8CF81E291E00E949803C0E027
S1130F40D0E0CF3FD10509F0A4F5FE01E759FD4FEC
S1130F50608170E080E090E00E948F0923E42F9389
S1130F6028E42F931F921F920F2EA12CB12CF8E48A
S1130F70CF2EF3ECDF2EF02DE12CF12C0FE713E450
S1130F8020E030E0A9010E946C0120E030E048EC50
S1130F9052E40E94E7080E94C7018C010E94980352
S1130FA0C8010E94080C21960F900F900F900F908B
S1130FB0C8CF83E291E00E949803C0E0D0E0CF3F25
S1130FC0D10509F0A4F5FE01E759FC4F608170E0FA
S1130FD080E090E00E948F0923E42F9328E42F936C
S1130FE01F921F920F2EA12CB12CF8E4CF2EF3ECFC
S1130FF0DF2EF02DE12CF12C0FE713E420E030E09C
S1131000A9010E946C0120E030E048EC52E40E9407
S1131010E7080E94C7018C010E949803C8010E943E
S1131020080C21960F900F900F900F90C8CFDF916E
S1131030CF911F910F91FF90EF90DF90CF90BF90D1
S1131040AF9008950F931F9387E591E00E94ED0000
S113105060936B0470936A04809369048091060121
S1131060811109C00E945307109268011092670110
S113107081E0809306010E94350200915301109192
S113108054012091550130915601DC01CB01801BA4
S1131090910BA20BB30B883E9340A105B10510F050
S11310A081E085B90E949E038823B9F00E94AB03B6
S11310B08C0165E271E00E94600D892B59F415B82A
S11310C00E9435026093530170935401809355013B
S11310D090935601C8010E94080C1F910F91089526
S11310E00E94F0060E942208FDCF5058BB27AA2771
S11310F00E948D080C94070A0E94F90938F00E9496
S1131100000A20F039F49F3F19F426F40C94F609F0
S11311100EF4E095E7FB0C94F009E92F0E94180AFD
S113112058F3BA17620773078407950720F079F418
S1131130A6F50C943A0A0EF4E0950B2EBA2FA02DC6
S11311400B01B90190010C01CA01A0011124FF2770
S1131150591B99F0593F50F4503E68F11A16F0406B
S1131160A22F232F342F4427585FF3CF469537956A
S11311702795A795F0405395C9F77EF41F16BA0B2F
S1131180620B730B840BBAF09150A1F0FF0FBB1FDD
S1131190661F771F881FC2F70EC0BA0F621F731F26
S11311A0841F48F4879577956795B795F7959E3F83
S11311B008F0B0CF9395880F08F09927EE0F979514
S11311C0879508950E94CC0908F481E008950E944F
S11311D0FB080C94070A0E94000A58F00E94F909BF
S11311E040F029F45F3F29F00C94F00951110C945C
S11311F03B0A0C94F6090E94180A68F39923B1F388
S1131200552391F3951B550BBB27AA276217730728
S1131210840738F09F5F5F4F220F331F441FAA1FBC
S1131220A9F335D00E2E3AF0E0E832D09150504078
S1131230E695001CCAF72BD0FE2F29D0660F771F26
S1131240881FBB1F261737074807AB07B0E809F00C
S1131250BB0B802DBF01FF2793585F4F3AF09E3F91
S1131260510578F00C94F0090C943B0A5F3FE4F3C9
S1131270983ED4F3869577956795B795F7959F5FD4
S1131280C9F7880F911D9695879597F90895E1E020
S1131290660F771F881FBB1F621773078407BA077F
S11312A020F0621B730B840BBA0BEE1F88F7E095DA
S11312B008950E9460096894B1110C943B0A089542
S11312C00E94200A88F09F5798F0B92F9927B751A8
S11312D0B0F0E1F0660F771F881F991F1AF0BA95D6
S11312E0C9F714C0B13091F00E943A0AB1E00895F0
S11312F00C943A0A672F782F8827B85F39F0B93FE2
S1131300CCF3869577956795B395D9F73EF4909588
S11313108095709561957F4F8F4F9F4F0895E89406
S113132009C097FB3EF490958095709561957F4F29
S11313308F4F9F4F9923A9F0F92F96E9BB279395D7
S1131340F695879577956795B795F111F8CFFAF4E7
S1131350BB0F11F460FF1BC06F5F7F4F8F4F9F4F18
S113136016C0882311F096E911C0772321F09EE876
S1131370872F762F05C0662371F096E8862F70E0DC
S113138060E02AF09A95660F771F881FDAF7880FB6
S11313909695879597F90895990F0008550FAA0B0C
S11313A0E0E8FEEF16161706E807F907C0F0121674
S11313B01306E407F50798F0621B730B840B950B77
S11313C039F40A2661F0232B242B252B21F40895CC
S11313D00A2609F4A140A6958FEF811D811D089569
S11313E097F99F6780E870E060E008959FEF80ECD4
S11313F0089500240A941616170618060906089577
S113140000240A9412161306140605060895092EDC
S11314100394000C11F4882352F0BB0F40F4BF2B4B
S113142011F460FF04C06F5F7F4F8F4F9F4F08958B
S113143057FD9058440F551F59F05F3F71F0479581
S1131440880F97FB991F61F09F3F79F08795089566
S1131450121613061406551FF2CF4695F1DF08C085
S1131460161617061806991FF1CF869571056105A2
S113147008940895E894BB2766277727CB0197F94A
S11314800895FA01DC01AA0FBB1F9B01AC01BF57F1
S113149028F4222733274427507820C0B75190F4EA
S11314A0AB2F0024469537952795011CA395D2F3BD
S11314B0002071F0220F331F441FB395DAF30ED0CE
S11314C00C94750861307105A0E88A07B94630F4B8
S11314D09B01AC016627772788279078309621F006
S11314E0208331834283538308950E94880A0C9495
S11314F0070A0E94F90938F00E94000A20F0952397
S113150011F00C94F0090C94F60911240C943B0A84
S11315100E94180A70F3959FC1F3950F50E0551F70
S1131520629FF001729FBB27F00DB11D639FAA2734
S1131530F00DB11DAA1F649F6627B00DA11D661F83
S1131540829F2227B00DA11D621F739FB00DA11DA4
S1131550621F839FA00D611D221F749F3327A00D5E
S1131560611D231F849F600D211D822F762F6A2FFA
S113157011249F5750409AF0F1F088234AF0EE0F5F
S1131580FF1FBB1F661F771F881F91505040A9F78C
S11315909E3F510580F00C94F0090C943B0A5F3F88
S11315A0E4F3983ED4F3869577956795B795F795C8
S11315B0E7959F5FC1F7FE2B880F911D9695879540
S11315C097F908950E94200AE8F09E37E8F09639CA
S11315D0B8F49E3848F4672F782F8827985FF9CF9E
S11315E086957795679593959539D0F3B62FB17015
S11315F06B0F711D811D20F48795779567959395E1
S11316000C94060B0C94210B0C943B0A882371F464
S1131610772321F09850872B762F07C0662311F487
S113162099270DC09051862B70E060E02AF09A95BE
S1131630660F771F881FDAF7880F9695879597F9B5
S113164008959F3F31F0915020F4879577956795E1
S1131650B795880F911D9695879597F90895052E4E
S113166097FB1EF400940E94460B57FD07D00E947E
S11316704E0B07FC03D04EF40C94460B509540954A
S1131680309521953F4F4F4F5F4F0895909580952A
S1131690709561957F4F8F4F9F4F0895A1E21A2E49
S11316A0AA1BBB1BFD010DC0AA1FBB1FEE1FFF1F02
S11316B0A217B307E407F50720F0A21BB30BE40B52
S11316C0F50B661F771F881F991F1A9469F7609599
S11316D07095809590959B01AC01BD01CF01089553
S11316E00F931F93CF93DF938230910510F482E020
S11316F090E0E0916E04F0916F0420E030E0A0E00F
S1131700B0E0309719F1408151810281138148176B
S11317105907C8F08417950769F4109731F01296A9
S11317200C93129713961C9327C000936E04109386
S11317306F0422C02115310519F04217530718F41C
S11317409A01BD01EF01DF01F801DBCF211531055D
S1131750F9F0281B390B2430310580F48A819B81F0
S11317606115710521F0FB019383828304C090937A
S11317706F0480936E04FE01329644C0FE01E20FB2
S1131780F31F8193919322503109398328833AC0FE
S113179020916C0430916D04232B41F420910201BB
S11317A03091030130936D0420936C042091000167
S11317B0309101012115310541F42DB73EB7409117
S11317C0040150910501241B350BE0916C04F09148
S11317D06D04E217F307A0F42E1B3F0B28173907FB
S11317E078F0AC014E5F5F4F2417350748F04E0F79
S11317F05F1F50936D0440936C048193919302C0D6
S1131800E0E0F0E0CF01DF91CF911F910F910895B7
S1131810CF93DF93009709F481C0FC0132971382C0
S11318201282A0916E04B0916F04109781F420810C
S11318303181820F931F20916C0430916D0428171D
S1131840390751F5F0936D04E0936C0467C0ED0122
S113185020E030E0CE17DF0740F44A815B819E012F
S113186041155105F1F0EA01F5CFD383C2834081DC
S11318705181840F951FC817D90759F4888199811C
S1131880840F951F0296918380838A819B81938321
S113189082832115310529F4F0936F04E0936E04DB
S11318A03DC0E901FB83EA8349915991C40FD51FD7
S11318B0EC17FD0761F480819181840F951F0296D6
S11318C0E90199838883828193819B838A83E0E001
S11318D0F0E012968D919C911397009719F0FD01F9
S11318E0DC01F7CF8D919C9111979D012E5F3F4FA5
S11318F0820F931F20916C0430916D0428173907CF
S113190069F4309729F410926F0410926E0402C0A7
S113191013821282B0936D04A0936C04DF91CF9173
S11319200895A0E0B0E0E7E9FCE00C945710EC0166
S1131930009721F4CB010E94700BB4C0FC01E60FA8
S1131940F71F9C0122503109E217F30708F4A8C0DD
S1131950D9010D911C91119706171707B0F00530A6
S1131960110508F49BC0C80104978617970708F46B
S113197095C002501109061B170B019311936D9327
S11319807C93CF010E94080C89C05B01A01AB10AA4
S11319904C01800E911EA0916E04B0916F04612CD5
S11319A0712CE12CF12C109709F446C08D919C9177
S11319B01197A815B905B1F56C0142E0C40ED11C0C
S11319C0CA14DB0478F14C018A189B08640142E0D4
S11319D0C40ED11C1296BC9012971396AC91B5E02C
S11319E0CB16D10440F0B282A38391828082D901C4
S11319F06D937C9309C00E5F1F4F800F911FF901F7
S1131A0091838083EB2DFA2FE114F10431F0D70197
S1131A101396FC93EE93129741C0F0936F04E093F6
S1131A206E043CC06816790608F43C017D011296E8
S1131A300D90BC91A02DB7CF80916C0490916D0452
S1131A4088169906E1F466167706C8F480910001B9
S1131A5090910101009741F48DB79EB74091040124
S1131A6050910501841B950BE817F907C8F4F0930E
S1131A706D04E0936C04F901718360830FC0CB01A2
S1131A800E94700B7C01009759F0A801BE010E94CE
S1131A90570DCE010E94080CC70104C0CE0102C03C
S1131AA080E090E0CDB7DEB7EEE00C947310FB015C
S1131AB0DC0102C001900D9241505040D8F70895C6
S1131AC0FB01DC018D91019080190110D9F3990B70
S1131AD00895FB01DC0101900D920020E1F70895C7
S1131AE0AEE0B0E0E6E7FDE00C9461100D891E89DC
S1131AF08F89988D26E02C831A83098397FF02C06F
S1131B0080E090E801979E838D83AE01455E5F4F30
S1131B10698D7A8DCE0101960E94C20D4D815E8140
S1131B2057FD0AC02F813885421753070CF49A01D8
S1131B30F801E20FF31F10822E96E4E00C947D105E
S1131B40AEE0B0E0E6EAFDE00C9461100D891E8978
S1131B5086E08C831A8309838FEF9FE79E838D83AE
S1131B60AE01475E5F4F6F89788DCE0101960E946A
S1131B70C20DEF81F885E00FF11F10822E96E4E08C
S1131B800C947D10ABE0B0E0E8ECFDE00C94531055
S1131B906C017B018A01FC0117821682838181FF1B
S1131BA0CCC1CE0101963C01F6019381F70193FD6E
S1131BB0859193FF81917F01882309F4BAC185320D
S1131BC039F493FD859193FF81917F01853229F446
S1131BD0B60190E00E94B90FE7CF912C212C312C53
S1131BE0FFE1F315D8F08B3279F038F4803279F0D4
S1131BF08332A1F4232D20611DC08D3261F0803326
S1131C0069F4232D216016C0832D8260382EE32DC4
S1131C10E4603E2E2AC0F32DF8601DC037FC2DC0B1
S1131C2020ED280F2A3040F08E32B9F436FC81C101
S1131C30232D2064322E19C036FE06C08AE0989EF9
S1131C40200D1124922E11C0EAE02E9E200D1124A5
S1131C50222EF32DF0623F2E08C08C3621F4832D02
S1131C608068382E02C0883641F4F70193FD8591CF
S1131C7093FF81917F018111B3CF982F9F7D95545C
S1131C80933028F40C5F1F4F9FE399830DC0833674
S1131C9031F0833771F0833509F059C021C0F80160
S1131CA0808189830E5F1F4F88248394912C530174
S1131CB013C02801F2E04F0E511CF801A080B1803E
S1131CC036FE03C0692D70E002C06FEF7FEFC501DF
S1131CD00E94AE0F4C018201F32DFF773F2E16C0F8
S1131CE0280122E0420E511CF801A080B18036FE8A
S1131CF003C0692D70E002C06FEF7FEFC5010E9441
S1131D00A30F4C01F32DF0683F2E820133FC1BC05E
S1131D10822D90E088169906B0F4B60180E290E036
S1131D200E94B90F2A94F4CFF50137FC859137FE50
S1131D3081915F01B60190E00E94B90F21102A94AD
S1131D4021E0821A91088114910471F7E8C0843665
S1131D5011F0893641F5F80137FE07C060817181C1
S1131D60828193810C5F1F4F08C060817181072EAF
S1131D70000C880B990B0E5F1F4FF32DFF763F2E3F
S1131D8097FF09C090958095709561957F4F8F4F0F
S1131D909F4FF0683F2E2AE030E0A3010E94F50F28
S1131DA0882E861845C0853731F4232D2F7EB22E18
S1131DB02AE030E025C0932D997FB92E8F36C1F0EB
S1131DC018F4883579F0B5C0803719F0883721F0D8
S1131DD0B0C0E92FE061BE2EB4FE0DC0FB2DF4604F
S1131DE0BF2E09C034FE0AC0292F2660B22E06C0B9
S1131DF028E030E005C020E130E002C020E132E01C
S1131E00F801B7FE07C060817181828193810C5F04
S1131E101F4F06C06081718180E090E00E5F1F4F0C
S1131E20A3010E94F50F882E8618FB2DFF773F2E05
S1131E3036FE0DC0232D2E7FA22E891458F434FEB5
S1131E400BC032FC09C0832D8E7EA82E05C0B82C91
S1131E50A32C03C0B82C01C0B92CA4FE0FC0FE01F2
S1131E60E80DF11D8081803321F49A2D997EA92EED
S1131E7009C0A2FE06C0B394B39404C08A2D867828
S1131E8009F0B394A3FC11C0A0FE06C0B21488F4F8
S1131E90280C922C9B180EC0B21460F4B60180E298
S1131EA090E00E94B90FB394F7CFB21418F42B1832
S1131EB002C0982C212CA4FE10C0B60180E390E04F
S1131EC00E94B90FA2FE17C0A1FC03C088E790E0EE
S1131ED002C088E590E0B6010CC08A2D867859F0DE
S1131EE0A1FE02C08BE201C080E2A7FC8DE2B60134
S1131EF090E00E94B90F891438F4B60180E390E0B1
S1131F000E94B90F9A94F7CF8A94F301E80DF11D5A
S1131F108081B60190E00E94B90F8110F5CF222094
S1131F2009F442CEB60180E290E00E94B90F2A94EF
S1131F30F6CFF6018681978102C08FEF9FEF2B9633
S1131F40E2E10C946F10FC010590615070400110A7
S1131F50D8F7809590958E0F9F1F0895FC016150CE
S1131F60704001900110D8F7809590958E0F9F1FB7
S1131F7008950F931F93CF93DF93FB01238121FDDA
S1131F8003C08FEF9FEF2CC022FF16C046815781FC
S1131F90248135814217530744F4A081B1819D0106
S1131FA02F5F3F4F318320838C93268137812F5FAE
S1131FB03F4F3783268314C08B01EC01FB0100845F
S1131FC0F185E02D0995892BE1F6D80116968D91BE
S1131FD09C911797019617969C938E931697CE0112
S1131FE0DF91CF911F910F910895FA01AA2728300C
S1131FF051F1203181F1E8946F936E7F6E5F7F4FD2
S11320008F4F9F4FAF4FB1E03ED0B4E03CD0670F4D
S1132010781F891F9A1FA11D680F791F8A1F911DA0
S1132020A11D6A0F711D811D911DA11D20D009F4F0
S113203068943F912AE0269F11243019305D319332
S1132040DEF6CF010895462F4770405D4193B3E01B
S11320500FD0C9F7F6CF462F4F70405D4A3318F0C2
S1132060495D31FD4052419302D0A9F7EACFB4E073
S1132070A6959795879577956795BA95C9F700972B
S11320806105710508959B01AC010A2E06945795CC
S1132090479537952795BA95C9F7620F731F841F23
S11320A0951FA01D08952F923F924F925F926F92B9
S11320B07F928F929F92AF92BF92CF92DF92EF92D4
S11320C0FF920F931F93CF93DF93CDB7DEB7CA1B55
S11320D0DB0B0FB6F894DEBF0FBECDBF09942A8880
S11320E0398848885F846E847D848C849B84AA8428
S11320F0B984C884DF80EE80FD800C811B81AA81B5
S1132100B981CE0FD11D0FB6F894DEBF0FBECDBF7F
S10B2110ED010895F894FFCFDE
S1132118000070042000012564002525642525306D
S1132128256464002525642E2525302564640078FB
S10B21380079007A00410A005D
S9030000FC
